:1000000012C01FC01EC01DC01CC01BC01AC073C0C0
:1000100018C017C016C015C014C013C012C011C03C
:1000200010C00FC00EC011241FBECFEDCDBF20E009
:10003000A0E6B0E001C01D92A73AB207E1F7F2D006
:1000400014C1DECF8CB95D9BFECF8AE08CB95D9B7D
:10005000FECF0895803350F08A3330F09FEB980F35
:10006000963020F48753089580ED089580E0089538
:1000700082E081BB86E089B912B888E18AB9579AD3
:10008000109260000895882361F0909162009111B0
:1000900008C0E7EAF1E63197F1F700C000008150AF
:1000A000F2CF109262000895209163009091640055
:1000B00030E0291B31092F7133272F313105C9F069
:1000C000E0916300EF71F0E0EE0FFF1FEA59FF4F80
:1000D0008083E0916300EF71F0E0EE0FFF1FEA59BB
:1000E000FF4F6183809163008F5F8093630081E0A5
:1000F000089580E008951F920F920FB60F92112479
:100100002F933F934F935F936F937F938F939F931F
:10011000AF93BF93EF93FF938CB18A3311F4109296
:10012000600090916000923061F030F4913091F570
:1001300091DF8295807F09C0933051F0943071F047
:1001400029C088DF90916500890F8093650026C0E3
:1001500081DF8295807F8093A60020C07BDF909115
:10016000A600890F8093A600809165008E3F21F440
:1001700081E08093620012C0809165008F3F21F47E
:1001800081E0809361000AC06091A60080916500C3
:100190008BDF04C0109265001092A6008091600071
:1001A0008E3F28F4809160008F5F80936000FF9104
:1001B000EF91BF91AF919F918F917F916F915F91DF
:1001C0004F913F912F910F900FBE0F901F90189558
:1001D000209163004091640030E0241B31092F71AD
:1001E0003327232BE9F0E0916400EF71F0E0EE0F8C
:1001F000FF1FEA59FF4F2081FC012083E09164003A
:10020000EF71F0E0EE0FFF1FEA59FF4F8181FB0114
:100210008083809164008F5F8093640081E0089503
:1002200080E00895CF93DF9300D0CDB7DD27479AC4
:100230008FEF87BB1DDF7894BE016F5F7F4FCE01CC
:100240000296C6DF882329F08A81880F88BB8981BE
:100250001ADF80916100882379F318BA80916300D6
:0E0260008093640010926100E7CFF894FFCF06
:00000001FF
